:1000000012C02CC02BC02AC029C028C027C026C0BF
:1000100025C03EC023C022C021C020C01FC01EC0BA
:100020001DC01CC01BC011241FBECFE5D4E0DEBF25
:10003000CDBF10E0A0E6B0E0E2EFF7E002C005902F
:100040000D92AA39B107D9F720E0AAE9B0E001C0C2
:100050001D92A33AB207E1F795D1C9C3D1CF5D9BF9
:10006000FECF8CB908955F9BFECF8CB1089510BC74
:1000700085E089B980B5866880BD8AB188618AB912
:10008000089583B7826083BF89B7816089BF08956F
:100090000F920FB60F921F9211242F933F938F93BD
:1000A0009F93EF93FF9380919C0023E030E0281B07
:1000B000310981E090E0022E01C0880F0A94EAF72E
:1000C000809590919A009F60892398E006C0A89837
:1000D000AA9A880FAA98915041F087FFF8CFA89A62
:1000E000AA9A880FAA989150C1F7E0919C00F0E07D
:1000F000E259FF4F908188E006C0A898AA9A990F0C
:10010000AA98815041F097FFF8CFA89AAA9A990F20
:10011000AA988150C1F7A99AA99880919C008F5FF5
:10012000843068F480939C00FF91EF919F918F91B0
:100130003F912F911F900F900FBE0F901895109226
:100140009C00F2CF87B1876C87B986B1876886B982
:10015000089590E430E020E0369A349BFECF349A44
:1001600044B155B1240F351F9150B1F7C901002496
:10017000880F991F001C880F991F001C892F902D34
:100180000895885C9109BC0190E080E00FD226EFD1
:1001900038E24CEB5FE370D2DDD1CB0108950F93D1
:1001A0001F93CF93DF9300D000D0CDB7DEB7FC0113
:1001B0009C01ADECBCECAED1969587959695879554
:1001C000969587959C01220F331F220F331F280F0E
:1001D000391F220F331FDF01A21BB30BAE58BF4FD5
:1001E0002C9129830AE010E0B80181D1DC01AE58DE
:1001F000BF4F8C918A839F01369527953695279519
:10020000ABE7B4E187D196958795B80170D1DC0151
:10021000AE58BF4F8C918B839F01369527953695AD
:10022000279536952795A5ECB0E274D192958295E5
:100230008F7089279F708927B80159D1FC01EE582A
:10024000FF4F80818C8383E091E0EFEFE80FA1E026
:10025000B0E0AC0FBD1FA80FB11D2C912A3F61F17A
:10026000EE2371F0825021E030E02C0F3D1F2E0F65
:10027000311DF90190819A3FD9F090E08111E5CFCD
:10028000F894898180936E008A8180936F008B81BE
:10029000809370008C818093710078940F900F9000
:1002A0000F900F90DF91CF911F910F9108958E2F96
:1002B000882331F38150E1CF9923C9F31C928E2F0B
:1002C000DDCFB09B2EC0859B19C0B19B56C0879BCC
:1002D0003BC080919A0086FF10C08FEF9FED20E118
:1002E000815090402040E1F700C0000080919A00CA
:1002F0008F7B80939A0010929B00089580919A00C2
:10030000806480939A0080917D0090917E00009798
:1003100071F580919B008D3080F78F5F80939B00FB
:10032000089580919A00806480939A0080917D0066
:1003300090917E00803223E092075CF701969093C3
:100340007E0080937D00E5CF84EE92E090937E0066
:1003500080937D00AB9880919A008F7D80939A0066
:10036000AC9A80919A00806180939A0008950197D9
:1003700090937E0080937D00CCCF10927E001092EF
:100380007D00089511BA8FEF84BB17BA80EE82BB4F
:1003900083E088BB15BA10BC85E089B980B5866852
:1003A00080BD8AB188618AB983B7826083BF89B70B
:1003B000816089BF87B1876C87B986B1876886B944
:1003C00080E690E09093A00080939F0090939E0021
:1003D00080939D008FE790E0DAD1789480E470E01C
:1003E00060E0369A349BFECF349A44B155B1640F25
:1003F000751F8150B1F70024660F771F001C660F30
:10040000771F001C672F702D685C710990E080E0F9
:10041000CDD026EF38E24CEB5FE32ED19BD06B01C1
:100420009B0180917D0090917E008C159D0554F478
:10043000AC9880919A008F7E80939A0080917D0085
:1004400090917E00AC01465F5F4F4217530774F4F2
:100450008A3D42E0940754F4AB9A80919A008062FE
:1004600080939A0080917D0090917E002817390733
:1004700054F4AB9880919A008F7D80939A0080917C
:100480007D0090917E000A972817390734F4AC9AC2
:1004900080919A00806180939A0013DF80919A0086
:1004A00086FF12C080917D0090917E0078DE809161
:1004B0009B008D30A8F48CEC9CEB25E081509040A3
:1004C0002040E1F700C08ACFC60169DE9FEF2FEB25
:1004D00046E0915020404040E1F700C000007ECF50
:1004E0008FEF91EA0197F1F700C0000077CF97FBFB
:1004F000072E16F4009406D077FD08D017D007FC1D
:1005000005D03EF4909581959F4F08957095619523
:100510007F4F0895A29FB001B39FC001A39F01D058
:10052000B29F700D811D1124911D0895AA1BBB1B44
:1005300051E107C0AA1FBB1FA617B70710F0A61BE3
:10054000B70B881F991F5A95A9F780959095BC0104
:10055000CD01089570D088F09F5790F0B92F99275A
:10056000B751A0F0D1F0660F771F881F991F1AF0BE
:10057000BA95C9F712C0B13081F077D0B1E00895D3
:1005800074C0672F782F8827B85F39F0B93FCCF354
:10059000869577956795B395D9F73EF490958095B4
:1005A000709561957F4F8F4F9F4F0895E89409C0D4
:1005B00097FB3EF490958095709561957F4F8F4F96
:1005C0009F4F9923A9F0F92F96E9BB279395F695AC
:1005D000879577956795B795F111F8CFFAF4BB0F2A
:1005E00011F460FF1BC06F5F7F4F8F4F9F4F16C08E
:1005F000882311F096E911C0772321F09EE8872F18
:10060000762F05C0662371F096E8862F70E060E0D3
:100610002AF09A95660F771F881FDAF7880F96954C
:10062000879597F9089557FD9058440F551F59F035
:100630005F3F71F04795880F97FB991F61F09F3FCF
:1006400079F087950895121613061406551FF2CFF8
:100650004695F1DF08C0161617061806991FF1CF48
:1006600086957105610508940895E894BB2766276F
:100670007727CB0197F908950BD078C069D028F07F
:100680006ED018F0952309F05AC05FC01124EECF48
:10069000CADFA0F3959FD1F3950F50E0551F629FDD
:1006A000F001729FBB27F00DB11D639FAA27F00DCB
:1006B000B11DAA1F649F6627B00DA11D661F829FF2
:1006C0002227B00DA11D621F739FB00DA11D621FD7
:1006D000839FA00D611D221F749F3327A00D611DF4
:1006E000231F849F600D211D822F762F6A2F1124D6
:1006F0009F5750408AF0E1F088234AF0EE0FFF1F29
:10070000BB1F661F771F881F91505040A9F79E3F5F
:10071000510570F014C0AACF5F3FECF3983EDCF3B4
:10072000869577956795B795F795E7959F5FC1F79C
:10073000FE2B880F911D9695879597F9089597F947
:100740009F6780E870E060E008959FEF80EC089577
:1007500000240A94161617061806090608950024A0
:100760000A9412161306140605060895092E03941A
:10077000000C11F4882352F0BB0F40F4BF2B11F48E
:1007800060FF04C06F5F7F4F8F4F9F4F08950F939F
:100790001F93CF93DF93E0919F00F091A0002381FE
:1007A00021FF1BC08C01D0E0C0E0F80181918F01D6
:1007B00060919F007091A000DB011896ED91FC9173
:1007C0001997882331F00995892B79F3DFEFCFEF63
:1007D000ECCF8AE00995892B19F08FEF9FEF02C0CB
:1007E0008D2F9C2FDF91CF911F910F910895F89439
:0207F000FFCF39
:1007F20000000003000000002F0033000000FA8216
:10080200B9ABFA82B9ABC36B7BA2FBEB00E4025338
:1008120068616D616E27732070756D7020636F6EF5
:0A08220074726F6C6C65720D0000BB
:00000001FF
