:1000000012C02CC02BC02AC029C028C027C026C0BF
:1000100025C03EC023C022C021C020C01FC01EC0BA
:100020001DC01CC01BC011241FBECFE5D4E0DEBF25
:10003000CDBF10E0A0E6B0E0E4EDFAE002C005902C
:100040000D92AA39B107D9F720E0AAE9B0E001C0C2
:100050001D92A33AB207E1F73AD23AC5D1CF5D9BE0
:10006000FECF8CB908955F9BFECF8CB1089510BC74
:1000700085E089B980B5866880BD8AB188618AB912
:10008000089583B7826083BF89B7816089BF08956F
:100090000F920FB60F921F9211242F933F938F93BD
:1000A0009F93EF93FF9380919C0023E030E0281B07
:1000B000310981E090E0022E01C0880F0A94EAF72E
:1000C000809590919A009F60892398E006C0A89837
:1000D000AA9A880FAA98915041F087FFF8CFA89A62
:1000E000AA9A880FAA989150C1F7E0919C00F0E07D
:1000F000E259FF4F908188E006C0A898AA9A990F0C
:10010000AA98815041F097FFF8CFA89AAA9A990F20
:10011000AA988150C1F7A99AA99880919C008F5FF5
:10012000843068F480939C00FF91EF919F918F91B0
:100130003F912F911F900F900FBE0F901895109226
:100140009C00F2CF87B1876C87B986B1876886B982
:10015000089590E430E020E0369A349BFECF349A44
:1001600044B155B1240F351F9150B1F7C901002496
:10017000880F991F001C880F991F001C892F902D34
:100180000895CF93DF9300D000D0CDB7DEB7885C61
:10019000910997FF02C090E080E09C01990F440B09
:1001A000550B29833A834B835C83CA01B90175D30C
:1001B00026EF38E24CEB5FE369837A838B839C8381
:1001C00069817A818B819C81CCD369837A838B838B
:1001D0009C8369817A818B819C812CD3CB010F9088
:1001E0000F900F900F90DF91CF910895CF93DF93F1
:1001F00000D000D0CDB7DEB780E430E020E0369A02
:10020000349BFECF349A44B155B1240F351F815031
:10021000B1F7C9010024880F991F001C880F991F8E
:10022000001C892F902D885C910997FF02C090E0F7
:1002300080E09C01990F440B550B29833A834B8333
:100240005C83CA01B90129D3E62F26EF38E24CEBD3
:100250005FE3E9837A838B839C8369817A818B81D5
:100260009C817FD369837A838B839C8369817A8124
:100270008B819C81DFD2272F862F922F0F900F909A
:100280000F900F90DF91CF910895CF93DF9300D01F
:1002900000D0CDB7DEB7AC019C01ADECBCECAAD26E
:1002A0009695879596958795969587959C01220FAB
:1002B000331F220F331F280F391F220F331F421BFA
:1002C000530BFA01EE58FF4F208129832AE030E0DA
:1002D000B9017DD2FC01EE58FF4F80818A83CB01AA
:1002E000B90175D2FC01EE58FF4F80818B83CB01A1
:1002F000B9016DD2FC01EE58FF4F80818C8383E001
:1003000021E09FEF980FE1E0F0E0EC0FFD1FE80F18
:10031000F11D30813A3F49F1992369F08250E1E0C3
:10032000F0E0EC0FFD1FE90FF11D90819A3FC9F03D
:1003300020E08111E6CFF894898180936E008A8154
:1003400080936F008B81809370008C81809371000B
:1003500078940F900F900F900F90DF91CF910895A8
:10036000892F882341F38150E3CF2223C9F31082E0
:10037000892FDFCFB09B2EC0859B19C0B19B56C083
:10038000879B3BC080919A0086FF10C08FEF9FED46
:1003900020E1815090402040E1F700C000008091B2
:1003A0009A008F7B80939A0010929B000895809111
:1003B0009A00806480939A0080917D0090917E00E5
:1003C000009771F580919B008D3080F78F5F80934F
:1003D0009B00089580919A00806480939A00809198
:1003E0007D0090917E00803223E092075CF70196B9
:1003F00090937E0080937D00E5CF84EE92E0909311
:100400007E0080937D00AB9880919A008F7D8093D1
:100410009A00AC9A80919A00806180939A00089526
:10042000019790937E0080937D00CCCF10927E0048
:1004300010927D000895CF93DF93EC01D7DE9C01ED
:10044000C83E43E0D407B1F1AE01465F5F4FC81725
:10045000D90764F5AC9880919A008F7E80939A00BA
:1004600042175307B4F480917D0090917E008A3D3D
:10047000924034F4AB9A80919A00806280939A0003
:100480002C173D0734F4AB9880919A008F7D8093B0
:100490009A002A972C173D0734F4AC9A80919A0061
:1004A000806180939A00DF91CF9108954817590792
:1004B000D4F2E6CF2B3D82E0380714F3AC9880915C
:1004C0009A008F7E80939A00DF91CF91089500D09B
:1004D00000D0CDB7DEB711BA8FEF84BB17BA80EE6C
:1004E00082BB83E088BB15BAC2DD83B7826083BF5D
:1004F00089B7816089BF87B1876C87B986B1876802
:1005000086B980E690E09093A00080939F0090933E
:100510009E0080939D008FE790E0AED2789410E02B
:1005200080E430E020E0369A349BFECF349A44B128
:1005300055B1240F351F8150B1F7C9010024880F30
:10054000991F001C880F991F001C892F902D885C13
:10055000910997FF02C080E090E09C01990F440B45
:10056000550B29833A834B835C83CA01B90195D12A
:10057000E62F26EF38E24CEB5FE3E9837A838B8347
:100580009C8369817A818B819C81EBD169837A8399
:100590008B839C8369817A818B819C814BD1F62EE0
:1005A000072F862F902F71DE80917D0090917E0025
:1005B00042DFB09B10C0859BA0C0B19B34C0879B1D
:1005C0001FC09FEF2FEB36E0915020403040E1F705
:1005D00000C00000A5CF86B3982F917080FFFBCF9D
:1005E000111106C010927D0010927E00192F98CF35
:1005F0008F2D902F90937E0080937D0010E090CF00
:1006000088EE93E090937E0080937D00AB9880917C
:100610009A008F7D80939A00AC9A80919A008061B5
:1006200080939A007DCFAC9880919A008F7E8093C2
:100630009A00AB9A80919A00806280939A00B19957
:1006400055C080E430E020E0369A349BFECF349AE7
:1006500044B155B1240F351F8150B1F7C9010024B1
:10066000880F991F001C880F991F001C892F902D3F
:10067000885C910997FF02C080E090E09C01990F8F
:10068000440B550B29833A834B835C83CA01B90120
:1006900004D1E62F26EF38E24CEB5FE3E9837A835F
:1006A0008B839C8369817A818B819C815AD16983F8
:1006B0007A838B839C8369817A818B819C81BAD078
:1006C000F62E072F862F902FE0DD3FEF4FEB56E001
:1006D000315040405040E1F700C000008F2D902F76
:1006E00090937E0080937D00B19BABCFAB988091BF
:1006F0009A008F7D80939A0013CFAB9880919A00D7
:100700008F7D80939A00AC9A80919A00806180934B
:100710009A00859955C080E430E020E0369A349BF9
:10072000FECF349A44B155B1240F351F8150B1F733
:10073000C9010024880F991F001C880F991F001CF5
:10074000892F902D885C910997FF02C080E090E08E
:100750009C01990F440B550B29833A834B835C838F
:10076000CA01B9019AD0E62F26EF38E24CEB5FE3DD
:10077000E9837A838B839C8369817A818B819C81D5
:10078000F0D069837A838B839C8369817A818B81A2
:100790009C8150D0F62E072F862F902F76DD3FEFCD
:1007A0004FEB56E0315040405040E1F700C00000B0
:1007B0008F2D902F90937E0080937D00859BABCFF3
:1007C000AC9880919A008F7E80939A00A9CE97FB77
:1007D000072E16F4009406D077FD08D017D007FC3A
:1007E00005D03EF4909581959F4F08957095619541
:1007F0007F4F0895A29FB001B39FC001A39F01D076
:10080000B29F700D811D1124911D0895AA1BBB1B61
:1008100051E107C0AA1FBB1FA617B70710F0A61B00
:10082000B70B881F991F5A95A9F780959095BC0121
:10083000CD01089504D06894B1118DC0089570D091
:1008400088F09F5790F0B92F9927B751A0F0D1F0B9
:10085000660F771F881F991F1AF0BA95C9F712C043
:10086000B13081F077D0B1E0089574C0672F782F50
:100870008827B85F39F0B93FCCF3869577956795AF
:10088000B395D9F73EF490958095709561957F4F1B
:100890008F4F9F4F0895E89409C097FB3EF49095C1
:1008A0008095709561957F4F8F4F9F4F9923A9F049
:1008B000F92F96E9BB279395F695879577956795D8
:1008C000B795F111F8CFFAF4BB0F11F460FF1BC01C
:1008D0006F5F7F4F8F4F9F4F16C0882311F096E9AF
:1008E00011C0772321F09EE8872F762F05C066235D
:1008F00071F096E8862F70E060E02AF09A95660F16
:10090000771F881FDAF7880F9695879597F90895CE
:1009100057FD9058440F551F59F05F3F71F04795B0
:10092000880F97FB991F61F09F3F79F08795089595
:10093000121613061406551FF2CF4695F1DF08C0B4
:10094000161617061806991FF1CF869571056105D1
:1009500008940895E894BB2766277727CB0197F979
:1009600008950BD078C069D028F06ED018F0952388
:1009700009F05AC05FC01124EECFCADFA0F3959FE3
:10098000D1F3950F50E0551F629FF001729FBB2776
:10099000F00DB11D639FAA27F00DB11DAA1F649F22
:1009A0006627B00DA11D661F829F2227B00DA11DD5
:1009B000621F739FB00DA11D621F839FA00D611D5B
:1009C000221F749F3327A00D611D231F849F600D7C
:1009D000211D822F762F6A2F11249F5750408AF0B5
:1009E000E1F088234AF0EE0FFF1FBB1F661F771F41
:1009F000881F91505040A9F79E3F510570F014C0D8
:100A0000AACF5F3FECF3983EDCF386957795679528
:100A1000B795F795E7959F5FC1F7FE2B880F911D5E
:100A20009695879597F9089597F99F6780E870E004
:100A300060E008959FEF80EC089500240A94161654
:100A4000170618060906089500240A9412161306BC
:100A5000140605060895092E0394000C11F488234A
:100A600052F0BB0F40F4BF2B11F460FF04C06F5F66
:100A70007F4F8F4F9F4F08950F931F93CF93DF9317
:100A8000E0919F00F091A000238100E010E021FDA3
:100A90000EC00FEF1FEFC801DF91CF911F910F9193
:100AA00008950995892B11F00FEF1FEFCE01EC018E
:100AB000899160919F007091A000DB011896ED91E3
:100AC000FC918111EECF8AE00995892B21F3E1CFCA
:040AD000F894FFCFC8
:100AD40000000003000000002F0033000000FA8231
:100AE400B9ABFA82B9ABC36B7BA2FBEB00E803534F
:100AF40068616D616E27732070756D7020636F6E11
:0A0B040074726F6C6C65720D0000D6
:00000001FF
